:020000040800F2
:1000000000A0002081150008C9150008C9150008C6
:10001000C9150008C9150008C9150008000000002E
:10002000000000000000000000000000C9150008EA
:10003000C915000800000000C9150008C91500080E
:1000400000000000000000000000000000000000B0
:1000500000000000000000000000000000000000A0
:100060000000000000000000000000000000000090
:100070000000000000000000000000000000000080
:100080000000000000000000000000000000000070
:100090000000000000000000000000000000000060
:1000A0000000000000000000000000000000000050
:1000B0000000000000000000000000000000000040
:1000C0000000000000000000000000000000000030
:1000D0000000000000000000000000000000000020
:1000E0000000000000000000000000000000000010
:1000F0000000000000000000000000000000000000
:1001000000000000000000000000000000000000EF
:1001100000000000000000000000000000000000DF
:1001200000000000000000000000000000000000CF
:1001300000000000000000000000000000000000BF
:1001400000000000000000000000000000000000AF
:10015000000000000000000000000000000000009F
:10016000000000000000000000000000000000008F
:10017000000000000000000000000000000000007F
:08018000000000000000000077
:1001880010B5054C237833B9044B13B10448AFF3C9
:1001980000800123237010BD100200200000000021
:1001A8001416000808B5034B1BB103490348AFF305
:1001B800008008BD0000000014020020141600088A
:1001C800002070470388024A5BBA138000207047FA
:1001D8000000002008B501F0CEF9002008BD08B5E0
:1001E80001F0C3F9002008BD10B5044601F0C1F9BB
:1001F80000F048FA204601F0BAF900F04AFA204621
:1002080001F0B8F922461021722000F0DBF8002036
:1002180010BD000070B5044601F0ABF90B4E002587
:100228003388AB4209D8204601F0A4F922461021B0
:10023800722000F0C7F8002070BD00F023FA2046B5
:1002480001F095F9013500F024FAE9E700000020F3
:100258001FB51E4B6A4603F1100615461868596803
:10026800144603C40833B3422246F7D100F068F9B4
:1002780000F0A6F900F0E2F901F076F9284601F05D
:1002880074F900F089F8124A10216B2000F080F808
:10029800104A1021702000F07BF80F4A00217820C6
:1002A80000F076F80D4A012312216D2000F05AF86B
:1002B8000B4A0221732000F06BF80A4A10216620CD
:1002C80000F066F800F0D8F8FCE700BF3F16000819
:1002D800E7010008F1010008C9010008DD01000874
:1002E800CD0100081D02000801207047F0B5002567
:1002F8004F1C854201DB002021E017F8154011F85A
:100308001530A4F13006F6B2092E0CD81670A3F1F8
:100318003004E6B2092E15D8137843EA0413137093
:1003280001350132E5E7A4F14106052E02D8373C34
:100338001470ECE7A4F16106052E01D90120F0BD87
:10034800573CF5E7A3F14104052C02D8A3F1370483
:10035800E2E7A3F16104052CF0D81478573B44EA8E
:100368000313DCE770B5094E34680F2C0BDCFF294A
:1003780009D806EB0415C5E90212013428712B745B
:100388003460002070BD0120FCE700BF2C02002073
:100398000023FFF7E7BF000008B5074A00217620D1
:1003A800FFF7F6FF054A7720FFF7F2FFBDE80840A0
:1003B800034A7920FFF7ECBFF10200083104000876
:1003C8000D040008F8B514460E4600F083F90C4FEA
:1003D800651EC4F1010463199E4204DCBDE8F840BF
:1003E8000A2000F077B915F8013F1B09F85C00F006
:1003F80071F92B7803F00F03F85C00F06BF9EAE76A
:100408002C16000807B5074B0DF107021B688DF87D
:10041800073001217220FFF7D5FF002003B05DF8F7
:1004280004FB00BF2C02002070B5124C21688CB070
:10043800CDB20020C3B2AB4200F1010009DB01EBF1
:1004480041016A46C9B27220FFF7BCFF00200CB018
:1004580070BD03EB43020CAE04EB031332441E7968
:1004680002F8306C9E681B7C02F82F6C02F82E3C58
:10047800E0E700BF2C0200202DE9F0412F4DADF53B
:10048800427D00F00DF92A46002352F8041B9942D8
:1004980004DC07D10DF5427DBDE8F0811C01A45CA8
:1004A80084423ED105EB03141E01237CDB0714D5DF
:1004B80000238DF8083000F0F3F88DF8080100F0FB
:1004C800EFF802AA8DF8090142A90120FFF70EFFF3
:1004D8000028DFD19DF80830A36042AF002405EB67
:1004E8000608D8F80830B4EB430F1CD300F0D8F84E
:1004F8000A2801D00D28CDD1354402AAAC6842A9FA
:100508002046FFF7F3FE0028C4D1E1B2EB6802A849
:10051800984701AA8DF8040001217A20FFF752FFBD
:10052800B8E70133B3E700F0BBF80A28B2D00D28CA
:10053800B0D007F8010B0134D3E700BF2C0200202C
:1005480070B596B0002403264FF4A0230CA801250B
:10055800CDE90C631094149400F0D4F80F232146CD
:1005680002A8CDE90235CDE90444069400F038FB31
:10057800114B5A6942F400225A615B69CDE9094678
:1005880003F400230D4C0193019B07A94FF4C043CA
:100598002046CDE9073500F0C9FB2A4620464FF42E
:1005A800005100F087FC2A464FF48041204600F0B5
:1005B80081FC16B070BD00BF001002400008004862
:1005C80010B54FF4C06288B00223CDE9032301219E
:1005D8000323CDE90513164C07230793636943F4F6
:1005E80000336361636903F40033019303A94FF097
:1005F8009040019B00F09AFB0E48DFF83CC04FF496
:100608001643C0E900C30023C0E9023303618361D4
:100618000C234361A36943F48043A361A36903F4F2
:1006280080430293029B00F099FD08B010BD00BF03
:10063800001002403003002000380140104B30B554
:100648005A6942F400325A615B6987B003F4003397
:100658000093009B4FF480540123CDE9014300250A
:10066800032301A94FF09040CDE9035300F05EFB4E
:100678002A4621464FF0904000F01CFC07B030BDE0
:100688000010024001224FF480514FF0904000F0DA
:1006980011BC00224FF480514FF0904000F00ABC8A
:1006A80037B50A4D0A4C41F2883301220DF1070192
:1006B800284600F0D4FD18B99DF8070003B030BDF6
:1006C800236A43F008032362EDE700BF30030020EC
:1006D8000038014007B541F288338DF80700012240
:1006E8000DF10701024800F064FD03B05DF804FB5A
:1006F80030030020024B1868421C1A60704700BF84
:10070800A003002003682DE9F341D907044611D45A
:1007180023689A0700F1868023681E0700F1F48099
:1007280023685D0700F14081E269002A40F0CB812F
:10073800002021E09A494B6803F00C03042B07D0F2
:100748004B6803F00C03082B19D14B68DB0316D553
:100758004FF4003393FAA3F2096893FAA3F3B3FAB8
:1007680083F303F01F03012202FA03F30B42CFD0F5
:100778006368002BCCD1012002B0BDE8F08162682B
:10078800B2F5803F24D10B6843F480330B60CB6A09
:10079800A06823F00F030343CB624AB3FFF7AAFF15
:1007A8004FF400360546012796FAA6F30A6896FA2A
:1007B800A6F3B3FA83F303F01F0307FA03F3134214
:1007C800A6D1FFF797FF401B6428EDD90320D3E794
:1007D8000B6832B923F480330B600B6823F4802351
:1007E800D4E7B2F5A02FF5D143F480230B60CAE714
:1007F800FFF780FF4FF400360546012796FAA6F367
:100808000A6896FAA6F3B3FA83F303F01F0307FA0C
:1008180003F313423FF47CAFFFF76CFF401B6428DF
:10082800ECD9D3E75E494B6813F00C0F07D04B683F
:1008380003F00C03082B21D14B68DF031ED40223DD
:1008480093FAA3F2086893FAA3F3B3FA83F303F0D5
:100858001F03012202FA03F3034202D023699342E1
:1008680089D10868F82393FAA3F3B3FA83F263698A
:10087800934020F0F80213430B604DE722690125ED
:1008880002B395FAA5F3B3FA83F303F1845303F59E
:1008980084139B0002271D60FFF72CFF064697FA7A
:1008A800A7F30A6897FAA7F3B3FA83F303F01F03D1
:1008B80005FA03F31342D4D1FFF71CFF801B02286B
:1008C800EDD983E795FAA5F3B3FA83F303F18453DB
:1008D80003F584139B0002271A60FFF70BFF0646F7
:1008E80097FAA7F30A6897FAA7F3B3FA83F303F022
:1008F8001F0305FA03F313423FF40EAFFFF7FAFEA6
:10090800801B0228ECD961E7A269254D2548012101
:1009180012B391FAA1F3B3FA83F303449B000226BE
:100928001960FFF7E7FE074696FAA6F396FAA6F3CC
:1009380096FAA6F36A6A96FAA6F3B3FA83F303F073
:100948001F0301FA03F313427FF4EAAEFFF7D2FE66
:10095800C01B0228E8D939E791FAA1F3B3FA83F367
:1009680003449B0002261A60FFF7C4FE074696FA66
:10097800A6F396FAA6F396FAA6F36A6A96FAA6F387
:10098800B3FA83F303F01F0301FA03F313423FF4AE
:10099800C7AEFFF7AFFEC01B0228E8D916E700BFB5
:1009A80000100240208190108A49CB69D80033D4C6
:1009B800CB6943F08053CB61CB6903F0805301933B
:1009C800019B0125844E3368DA0527D5E368012B9E
:1009D80034D10B6A43F001030B62FFF78BFE02264A
:1009E80007464FF0010896FAA6F396FAA6F3002BED
:1009F80061D00A6A96FAA6F3B3FA83F303F01F03E9
:100A080008FA03F313424ED0002D3FF48DAECB69A4
:100A180023F08053CB6187E60025D3E7336843F49E
:100A280080733360FFF766FE07463368DB05CDD475
:100A3800FFF760FEC01B6428F7D9C7E62BBB0B6A1B
:100A480023F001030B620B6A23F004030B62FFF728
:100A580051FE022607464FF0010896FAA6F396FAC9
:100A6800A6F363B30A6A96FAA6F3B3FA83F303F01C
:100A78001F0308FA03F31342C6D0FFF73BFE41F207
:100A88008833C01B9842E8D9A0E6052B0B6A03D12E
:100A980043F004030B629CE723F001030B620B6A2B
:100AA80023F0040398E7FFF725FE41F28833C01BC3
:100AB800984298D98AE696FAA6F34A6A9AE796FA85
:100AC800A6F34A6ACFE743494B6803F00C03082BA7
:100AD8003FF451AE022A4FF0807354D193FAA3F336
:100AE800B3FA83F303F1845303F584139B000022C4
:100AF8001A60FFF7FFFDDFF8E48006464FF0007745
:100B0800012597FAA7F30A6897FAA7F3B3FA83F3CC
:100B180003F01F0305FA03F313422ED1D4E90803A7
:100B28004A68034322F4741213434B604FF08073F6
:100B380093FAA3F3B3FA83F303F1845303F584130D
:100B48009B00264F1D60FFF7D5FD4FF0007504464A
:100B5800012695FAA5F30A6895FAA5F3B3FA83F383
:100B680003F01F0306FA03F313427FF4E1ADFFF726
:100B7800C1FD001BB842ECD928E6FFF7BBFD801B7E
:100B88004045BED922E693FAA3F3B3FA83F303F1FF
:100B9800845303F584139B0000221A60FFF7AAFD13
:100BA8000E4F04464FF00075012695FAA5F30A6822
:100BB80095FAA5F3B3FA83F303F01F0306FA03F3D8
:100BC80013423FF4B5ADFFF795FD001BB842ECD9D1
:100BD800FCE500BF0010024000700040400D03001B
:100BE800504AF8B5136803F007038B4204461BD339
:100BF8002268900724D4D2072AD44A4A136803F0FB
:100C080007038B427AD82068430700F1828010F0EE
:100C1800080014D0444A2169536823F4605343EA16
:100C2800C103536000200AE0136823F007030B4355
:100C38001360136803F007038B42D9D00120F8BD75
:100C48003948A568436823F0F0032B434360D2E793
:100C58006268354D012A27D14FF4003393FAA3F087
:100C6800286893FAA3F3B3FA83F303F01F0302FA95
:100C780003F30342E2D06B6823F003031A436A606C
:100C8800FFF738FD6368012B064641F288371ED10D
:100C98006B6803F00C03042BAFD0FFF72BFD801B10
:100CA800B842F5D90320CAE7022A0CBF4FF00073F7
:100CB800022393FAA3F02E6893FAA3F3B3FA83F30B
:100CC80003F01F03012000FA03F33342D2E7022B9B
:100CD8000FD16B6803F00C03082B8ED0FFF70AFDC9
:100CE800801BB842F5D9DDE7FFF704FD801BB84249
:100CF800D8D86B6813F00C0FF6D17EE7136823F091
:100D080007030B431360136803F007038B4295D165
:100D180079E70549E3684A6822F4E0621A434A60C1
:100D280075E700BF00200240001002402DE9F74F90
:100D3800DFF874815D4C00234FF001090A6832FA2C
:100D480003F502D103B0BDE8F08F09FA03FA1AEAF5
:100D5800020200F09E804D6825F0100EBEF1020FD1
:100D680014D14FEAD30C00EB8C0C03F0070BDCF822
:100D780020604FEA8B0B0F2707FA0BF726EA0707C5
:100D88000E6906FA0BF63E43CCF82060D0F800B0A6
:100D98004FEA430C032606FA0CF72BEA070BFE432F
:100DA80005F0030707FA0CF70EF1FF3E47EA0B07B9
:100DB800BEF1010F076011D8876806EA070ECF68F1
:100DC80007FA0CF747EA0E078760476827EA0A0A16
:100DD800C5F300179F4047EA0A074760C7683740CE
:100DE8008E6806FA0CF63E43C660EE0051D5D8F878
:100DF800186046F00106C8F81860D8F8186023F0A3
:100E0800030707F1804706F0010607F580370196CA
:100E180003F0030E019EBE684FEA8E0E4FF00F0CD2
:100E28000CFA0EFCB0F1904F26EA0C0C33D0204E91
:100E3800B04232D006F58066B04230D006F5806602
:100E4800B0422ED006F58066B0420CBF04260526B7
:100E580006FA0EF646EA0C06BE602668D74315F475
:100E6800803F0CBF3E4016432660666815F4003F7D
:100E78000CBF3E4016436660A66815F4801F0CBF81
:100E88003E401643A660E668AD0254BF3E40164396
:100E9800E660013352E70026DAE70126D8E70226A2
:100EA800D6E70326D4E700BF001002400004014043
:100EB800000400480AB181617047816270470000F0
:100EC80002688168C36930B50569146829434569B2
:100ED80024F41644294324F00C04194321431160D7
:100EE8005168C468056A21F44051214351609468EF
:100EF800816924F4306429432143916062498A421C
:100F080016D101F55841096B01F003010139022995
:100F180000F2B2805D4CB3F5004F615C77D10829CF
:100F280072D8DFE801F0ACAC2471AC717171A40027
:100F380057498A422CD101F5E631096B01F4403159
:100F4800B1F5003F00F090800BD8002900F09480A4
:100F5800B1F5803F00F09080B3F5004F54D00120E8
:100F680015E0B1F5403FF7D1B3F5004F66D14168C0
:100F78004B0803F1F47303F59043B3FBF1F300203E
:100F88009BB223F00F01C3F342030B43D36030BD80
:100F980040498A4210D101F5E431096B01F440213E
:100FA800B1F5002F60D004D8002965D0B1F5802FA5
:100FB800D0E7B1F5402FD6E737498A4210D101F57D
:100FC800E231096B01F44011B1F5001F4CD004D88F
:100FD800002951D0B1F5801FBCE7B1F5401FC2E729
:100FE8002E498A42B8D101F5E031096B01F440017C
:100FF800B1F5000F38D004D800293DD0B1F5800FE5
:10100800A8E7B1F5400FAEE701200023B9E70829AA
:10101800A5D801A353F821F05D1000085D10000861
:1010280045100008670F00085D100008670F0008EA
:10103800670F0008670F00086710000841684B0831
:1010480003F5740303F51053B3FBF1F39BB2D360BC
:1010580000209CE741684B0803F5E103F4E7416889
:101068004B0803F50043EFE7B3F5004FF7D14168AC
:101078004B0803F5803380E7B3F5004FEAD14168A8
:101088004B0803F5610378E7003801403C16000877
:101098000044004000480040004C00400050004020
:1010A800F8B5069F044615461E462268D36931EAFC
:1010B80003030CBF01230023AB4201D0002014E03E
:1010C8007B1CF3D097B923681A6822F4D0721A608F
:1010D8009A6822F001029A60202384F8693084F823
:1010E8006A30002384F868300320F8BDFFF702FB5C
:1010F800801BB842D9D9E6E737B504460021C16656
:10110800FFF7F8FA23681B681A07054617D42368FF
:101118001B685B070AD56FF07E43009300222B46BD
:101128004FF480012046FFF7BBFFA0B92023002021
:1011380084F8693084F8680084F86A300CE06FF04D
:101148007E4300930A4603464FF400112046FFF7FA
:10115800A7FF0028DBD0032003B030BD10B504463C
:1011680028B390F8693003F0FF020BB980F86820C3
:101178002268242384F86930136823F0010313607C
:101188002046FFF79DFE012811D023685A6822F4F3
:1011980090425A609A6822F02A029A601A6842F0CD
:1011A800010220461A60BDE81040FFF7A5BF0120E4
:1011B80010BDF7B51E4690F86930202B0D46044641
:1011C80011464AD1002D46D0002A44D090F8683004
:1011D800012B42D0012380F868300023C366212305
:1011E80080F86930FFF786FAA4F850100746A4F88B
:1011F8005210B4F8522092B262B900963B46402190
:101208002046FFF74DFF98B9202384F8693084F809
:1012180068000EE0B4F852200096013A92B2A4F8A1
:1012280052203B46002280212046FFF739FF10B1AB
:10123800032003B0F0BDA3682268B3F5805F07D12F
:1012480023692BB935F8023BC3F308031385D0E7AC
:1012580015F8013BFAE70120EBE70220E9E72DE961
:10126800F3411E4690F86A30202B0D46044611467D
:101278005CD1002D58D0002A56D090F86830012B48
:1012880054D0012380F8683003684FF0FF321A62A7
:101298000023C366222380F86A30FFF72BFAA3687D
:1012A800A4F85810B3F5805F8046A4F85A1015D1F9
:1012B80023698BB940F2FF13A4F85C30B4F85C7072
:1012C800B4F85A0080B280B9202384F86A3084F8D0
:1012D800680002B0BDE8F081FF23EDE7002BEDD1F7
:1012E8002369002BF8D07F23E6E7B4F85A2000964C
:1012F800013A92B2A4F85A204346002220212046FF
:10130800FFF7CEFEA0B9A2682368B2F5805F06D1C8
:10131800226922B99B8C3B4025F8023BD0E79B8C85
:101328003B4005F8013BCBE70120D2E70220D0E79C
:101338000320CEE737B5274A52F8043B03F11001E2
:10134800187810705878507098789070D878D07055
:1013580004338B4202F10402F2D11F4B1F480421CF
:101368001A6801928C0716D1C2F30745C2F3072405
:10137800455D8DF80550150ED2B2045D825C8DF87E
:10138800072000EB9102455D92F800218DF8065088
:1013980062408DF8042013F80C2C9DF8044062403C
:1013A8001A719DF8054013F80B2C62405A719DF88C
:1013B800064013F80A2C62409A719DF8074013F80A
:1013C800092C013162402C29DA7103F10403C7D1D9
:1013D80003B030BDA8030020B8030020020000209D
:1013E8000B4BF0B5D3F8B4400001211D1A1D14347D
:1013F8000B1F16181D7816F8017B7D4003F8015B5A
:101408008B42F7D1191DA14200F10400F0D1F0BDC3
:10141800A8030020094B0A48D3F8B43010B5191DA9
:10142800002213F82240045D03F822400132042A06
:10143800F7D101338B42F3D110BD00BFA8030020C0
:10144800020000200D4BD3F8B43059795A785970FE
:10145800597A5971597B5972997A5A739A7899704D
:10146800997B9A729A799971D97B9A73DA78D9703B
:10147800D97AD973D979D972DA717047A80300205B
:10148800C30903EB430303EBC30383EA4000C0B281
:10149800704700002DE9F84F0020FFF7A1FF224F09
:1014A8000124FFF7B7FFFFF7CDFFD7F8B42002F10B
:1014B800100A92F800905578917892F8038089EA9A
:1014C800050081EA080B8BEA0006FFF7D9FF89EAD5
:1014D80000007040107085EA0100FFF7D1FF454019
:1014E800754055705846FFF7CBFF414071409170E9
:1014F80089EA0800FFF7C4FF88EA000886EA0806B8
:10150800D67004329245D4D120460134E4B2FFF7B4
:1015180067FF0A2CC5D1FFF77DFFFFF793FF204631
:10152800BDE8F84FFFF75CBFA80300204B1E013849
:101538000F3113F8012F00F8012F8B42F9D17047B2
:10154800014B1860FFF7F6BEA803002008B5014656
:101558000448C0F8B410B830FFF7E8FFBDE8084009
:10156800FFF798BFA80300207047FFF7E9BFFFF710
:10157800EDBF704770477047002103E00B4B5B5885
:10158800435004310A480B4B42189A42F6D30A4A90
:1015980002E0002313600432084B9A42F9D3AFF3F8
:1015A800008000F00FF8FEF753FEFEE7581600081B
:1015B800000000201002002010020020700400200B
:1015C800FEE7000070B50D4D0D4C641BA4100026FD
:1015D800A64209D10B4D0C4C00F018F8641BA4105E
:1015E8000026A64205D170BD55F8043B9847013640
:1015F800EEE755F8043B98470136F2E75016000825
:10160800501600085016000854160008F8B500BF18
:10161800F8BC08BC9E467047F8B500BFF8BC08BCCB
:041628009E46704723
:10162C00303132333435363738394142434445460C
:10163C000408022B7E151628AED2A6ABF715880926
:04164C00CF4F3C0040
:04165000AD010008E0
:041654008901000800
:101658000A00637C777BF26B6FC53001672BFED77E
:10166800AB76CA82C97DFA5947F0ADD4A2AF9CA423
:1016780072C0B7FD9326363FF7CC34A5E5F171D893
:10168800311504C723C31896059A071280E2EB2781
:10169800B27509832C1A1B6E5AA0523BD6B329E3A4
:1016A8002F8453D100ED20FCB15B6ACBBE394A4C84
:1016B80058CFD0EFAAFB434D338545F9027F503C04
:1016C8009FA851A3408F929D38F5BCB6DA2110FF30
:1016D800F3D2CD0C13EC5F974417C4A77E3D645D2D
:1016E800197360814FDC222A908846EEB814DE5EBA
:1016F8000BDBE0323A0A4906245CC2D3AC6291950E
:10170800E479E7C8376D8DD54EA96C56F4EA657A49
:10171800AE08BA78252E1CA6B4C6E8DD741F4BBDEA
:101728008B8A703EB5664803F60E613557B986C197
:101738001D9EE1F8981169D98E949B1E87E9CE55B4
:1017480028DF8CA1890DBFE6426841992D0FB0545E
:10175800BB168D01020408102040801B3652096A0E
:10176800D53036A538BF40A39E81F3D7FB7CE3393B
:10177800829B2FFF87348E4344C4DEE9CB547B948D
:1017880032A6C2233DEE4C950B42FAC34E082EA159
:101798006628D924B2765BA2496D8BD12572F8F6FA
:1017A8006486689816D4A45CCC5D65B6926C704863
:1017B80050FDEDB9DA5E154657A78D9D8490D8ABDC
:1017C800008CBCD30AF7E45805B8B34506D02C1EE4
:1017D8008FCA3F0F02C1AFBD0301138A6B3A911143
:1017E800414F67DCEA97F2CFCEF0B4E67396AC745B
:1017F80022E7AD3585E2F937E81C75DF6E47F11A47
:10180800711D29C5896FB7620EAA18BE1BFC563E0A
:101818004BC6D279209ADBC0FE78CD5AF41FDDA8DA
:10182800338807C731B11210592780EC5F60517FA8
:10183800A919B54A0D2DE57A9F93C99CEFA0E03B05
:101848004DAE2AF5B0C8EBBB3C83539961172B0406
:101858007EBA77D626E169146355210C7D00000015
:040000050800158159
:00000001FF
